:100000000C945E000C9486000C9486000C94860080
:100010000C9486000C9486000C9486000C94860048
:100020000C9486000C9486000C9486000C94860038
:100030000C9486000C9486000C9486000C94860028
:100040000C94DC010C9486000C9486000C948600C1
:100050000C9486000C9486000C9486000C94860008
:100060000C9486000C9486000000000024002700F9
:100070002A0000000000250028002B0004040404CE
:100080000404040402020202020203030303030342
:10009000010204081020408001020408102001021F
:1000A00004081020000000080002010000030407FB
:1000B00000000000000000008803E40311241FBEBC
:1000C000CFEFD8E0DEBFCDBF11E0A0E0B1E0E0EAC5
:1000D000FAE002C005900D92A830B107D9F721E0EF
:1000E000A8E0B1E001C01D92A934B207E1F710E029
:1000F000CDE5D0E004C02197FE010E943D05CC353E
:10010000D107C9F70E94FA030C9409040C9400006B
:1001100090E0FC01EC55FF4F3491FC01E057FF4F9C
:100120002491FC01E458FF4FE491EE2309F43BC015
:10013000332339F1333091F038F43130A9F03230D3
:1001400001F584B58F7D12C0373091F03830A1F0C1
:100150003430B9F4809180008F7D03C0809180009D
:100160008F77809380000DC084B58F7784BD09C0E0
:100170008091B0008F7703C08091B0008F7D809315
:10018000B000F0E0EE0FFF1FEE58FF4FA591B491C5
:100190008FB7F894EC91611103C020952E2301C014
:1001A0002E2B2C938FBF08953FB7F89480910D01AB
:1001B00090910E01A0910F01B091100126B5A89B5E
:1001C00005C02F3F19F00196A11DB11D3FBFBA2FE9
:1001D000A92F982F8827820F911DA11DB11DBC0149
:1001E000CD0142E0660F771F881F991F4A95D1F70E
:1001F0000895482F50E0FA01E057FF4F9491FA011B
:10020000E458FF4F2491222399F030E0220F331F4E
:10021000F901E859FF4FA591B491F901EE58FF4F4C
:10022000259134912FB7F894EC91E92BEC932FBFE3
:100230006115710511F460E004C06F3F710519F498
:1002400061E00C948800FA01EC55FF4FE491E33033
:10025000F9F048F4E130B9F0E230A1F584B58062FC
:1002600084BD68BD0895E730E9F0E83019F1E43065
:1002700049F58091800080628093800070938B00AC
:1002800060938A00089584B5806884BD67BD089531
:1002900080918000806880938000709389006093D3
:1002A000880008958091B00080688093B0006093CA
:1002B000B30008958091B00080628093B000609395
:1002C000B4000895603871050CF0BACFB4CF7894BB
:1002D00084B5826084BD84B5816084BD85B582604B
:1002E00085BD85B5816085BDEEE6F0E080818160E9
:1002F0008083E1E8F0E010828081826080838081E9
:1003000081608083E0E8F0E0808181608083E1EBC0
:10031000F0E0808184608083E0EBF0E080818160A8
:100320008083EAE7F0E0808184608083808182605E
:100330008083808181608083808180688083109247
:10034000C10008958F929F92AF92BF92CF92DF9299
:10035000EF92FF926B017C010E94D4004B015C0183
:10036000C114D104E104F104F1F00E94D400DC01D5
:10037000CB0188199909AA09BB09883E9340A105B8
:10038000B10570F321E0C21AD108E108F10888EE46
:10039000880E83E0981EA11CB11CC114D104E10495
:1003A000F10419F7DDCFFF90EF90DF90CF90BF9071
:1003B000AF909F908F9008951F920F920FB60F925B
:1003C00011242F933F938F939F93AF93BF9380916B
:1003D000090190910A01A0910B01B0910C0130919B
:1003E000080123E0230F2D3720F40196A11DB11D34
:1003F00005C026E8230F0296A11DB11D2093080118
:100400008093090190930A01A0930B01B0930C0112
:1004100080910D0190910E01A0910F01B0911001FA
:100420000196A11DB11D80930D0190930E01A09323
:100430000F01B0931001BF91AF919F918F913F91A8
:100440002F910F900FBE0F901F901895CF92DF92B3
:10045000EF92FF920F931F93CF93FC01C284D3843A
:10046000C08546813481238181819281009739F052
:100470008230910539F0019721F4C42F03C0C32FB6
:1004800001C0C0E00D2C000CEE08FF08222389F00B
:1004900000E010E0B8018C2F0E94F900C701B601FE
:1004A0000E94A2010F5F1F4F011581E0180791F70D
:1004B0000DC00FEF10E0B8018C2F0E94F900C701AA
:1004C000B6010E94A20101501109A8F7CF911F9116
:1004D0000F91FF90EF90DF90CF900895CF93DF932F
:1004E000C1E1D1E06FEF70E088810E94F90060E027
:1004F00070E08A810E94F90060E070E08C81DF91F9
:10050000CF910C94F900AF92BF92CF92DF92FF92FD
:100510000F931F93CF93DF93CDB7DEB72C970FB612
:10052000F894DEBF0FBECDBF2091000130910101D4
:1005300046E4429FC001439F900D112401E111E068
:10054000D80114962D913C91159712964D915C917E
:1005500013976D917C91AA24A394B12CBB82AA829B
:10056000FF24F394FC827E836D8358874F833A8700
:1005700029879C878B87CE0101960E942602809155
:100580000001909101019C01220F331F820F931FE4
:10059000F8012481358142815381608171811B8200
:1005A0001A821C827E836D8358874F833A872987FE
:1005B0009C878B87CE0101960E94260260910001E4
:1005C00070910101072E000C880B990B0E944404C6
:1005D00020E030E048E151E40E94A8040E940C04AD
:1005E000D80114962D913C91159712964D915C91DE
:1005F0001397ED91FC91A2E0CA2ED12CDB82CA8226
:10060000FC82FE83ED8358874F833A8729877C8756
:100610006B87CE0101960E942602609100017091C5
:100620000101072E000C880B990B0E94440420E066
:1006300030E040EF50E40E94A8040E940C04F8014E
:1006400024813581428153810190F081E02DBB826C
:10065000AA821C82FE83ED8358874F833A872987BD
:100660007C876B87CE0101960E9426028091000153
:1006700090910101880F991F880F991FD801149636
:100680002D913C91159712964D915C9113976D9118
:100690007C911B821A82FC827E836D8358874F83F4
:1006A0003A8729879C878B87CE0101960E94260274
:1006B00020910001309101014CE0429FC001439F15
:1006C000900D1124F801248135814281538160818C
:1006D0007181DB82CA821C827E836D8358874F833F
:1006E0003A8729879C878B87CE0101960E94260234
:1006F0002C960FB6F894DEBF0FBECDBFDF91CF9121
:100700001F910F91FF90DF90CF90BF90AF90089511
:10071000E5E4F1E01282118281E08383E1E4F1E01B
:10072000128211821382EDE3F1E042E050E0528345
:1007300041838383E9E3F1E0528341831382E5E35C
:10074000F1E021E030E0328321838383E1E3F1E0D3
:10075000328321831382EDE2F1E0128211828383DE
:10076000E9E2F1E0128211821382E5E2F1E05283C4
:1007700041838383E1E2F1E0528341831382EDE11F
:10078000F1E0328321838383E9E1F1E03283218345
:10079000138280910001909101012091020130911A
:1007A00003014091040150910501E1E1F1E0609104
:1007B00006017091070171836083538342833583FF
:1007C0002483978386830895CF93DF93C1E1D1E09B
:1007D00060E070E088810E94F90060E070E08A814A
:1007E0000E94F90060E070E08C81DF91CF910C9461
:1007F000F90008950E9467010E94F9030E946E02A9
:10080000C0E0D0E00E9483022097E1F30E94000044
:10081000F9CFF8940C9443050E9413046894B11125
:100820000C94A20408950E94870488F09F5798F0C2
:10083000B92F9927B751B0F0E1F0660F771F881FE5
:10084000991F1AF0BA95C9F714C0B13091F00E94FF
:10085000A104B1E008950C94A104672F782F882794
:10086000B85F39F0B93FCCF3869577956795B39526
:10087000D9F73EF490958095709561957F4F8F4F95
:100880009F4F0895E89409C097FB3EF4909580959A
:10089000709561957F4F8F4F9F4F9923A9F0F92F46
:1008A00096E9BB279395F695879577956795B795C4
:1008B000F111F8CFFAF4BB0F11F460FF1BC06F5FAA
:1008C0007F4F8F4F9F4F16C0882311F096E911C0BC
:1008D000772321F09EE8872F762F05C0662371F0DD
:1008E00096E8862F70E060E02AF09A95660F771FF1
:1008F000881FDAF7880F9695879597F9089557FD21
:100900009058440F551F59F05F3F71F04795880F7D
:1009100097FB991F61F09F3F79F087950895121614
:1009200013061406551FF2CF4695F1DF08C01616C0
:1009300017061806991FF1CF869571056105089471
:100940000895E894BB2766277727CB0197F9089588
:100950000E94BB040C942C050E941E0538F00E94D6
:10096000250520F0952311F00C9415050C941B051A
:1009700011240C94A2040E947F0470F3959FC1F38C
:10098000950F50E0551F629FF001729FBB27F00D3D
:10099000B11D639FAA27F00DB11DAA1F649F662792
:1009A000B00DA11D661F829F2227B00DA11D621FE1
:1009B000739FB00DA11D621F839FA00D611D221F9B
:1009C000749F3327A00D611D231F849F600D211D7F
:1009D000822F762F6A2F11249F5750409AF0F1F002
:1009E00088234AF0EE0FFF1FBB1F661F771F881F6B
:1009F00091505040A9F79E3F510580F00C94150589
:100A00000C94A2045F3FE4F3983ED4F38695779567
:100A10006795B795F795E7959F5FC1F7FE2B880F10
:100A2000911D9695879597F9089597F99F6780E8A6
:100A300070E060E008959FEF80EC089500240A9430
:100A40001616170618060906089500240A941216A9
:100A50001306140605060895092E0394000C11F4DC
:100A6000882352F0BB0F40F4BF2B11F460FF04C089
:100A70006F5F7F4F8F4F9F4F0895EE0FFF1F0590C1
:100A8000F491E02D099410E0CDE5D0E004C0FE0122
:100A90000E943D052196CE35D107C9F7F894FFCFC6
:080AA00002000B000A0009002E
:00000001FF
